:020000040800F2
:10000000E0FB0020A9010008F3240008211C0008DF
:10001000F124000807040008A92E000800000000D1
:100020000000000000000000000000003B25000868
:100030009B0400080000000015250008AD260008FC
:10004000C3010008C3010008C3010008C301000880
:10005000C3010008C3010008C3010008C301000870
:10006000C3010008C3010008C3010008C301000860
:10007000C3010008C3010008C3010008C301000850
:10008000C3010008C3010008C3010008C301000840
:10009000C3010008C3010008C30100089D04000853
:1000A000C3010008C3010008C3010008C301000820
:1000B000A9270008C1270008C3010008C3010008E0
:1000C000C3010008C3010008C3010008C301000800
:1000D000C3010008C3010008852D0008C301000802
:1000E000C3010008C3010008C3010008C3010008E0
:1000F000C3010008C3010008C3010008C3010008D0
:10010000C30100080000000000000000C301000857
:10011000C3010008C3010008C3010008C3010008AF
:10012000C3010008C3010008C3010008C30100089F
:10013000C3010008C3010008000000000000000027
:10014000C3010008C3010008C3010008000000004B
:10015000000000000000000000000000000000009F
:10016000C3010008C3010008C3010008C30100085F
:10017000C3010008C3010008C3010008C30100084F
:10018000C3010008C30100080000000000000000D7
:10019000C3010008DFF80CD000F006F90048004762
:1001A00079340008E0FB00200648804706480047F5
:1001B000FEE7FEE7FEE7FEE7FEE7FEE7FEE7FEE717
:1001C000FEE7FEE74127000895010008202A04DB2E
:1001D000203A21FA02F00021704721FA02F3D040C0
:1001E000C2F1200291400843194670470649074A68
:1001F0000868504343F239021044086040087047D1
:100200000149086070470000A40000206D4EC641FF
:1002100010B54843044603F0CFF9002805D000216B
:10022000002C02D0641E0155FAE710BD2DE9F047FD
:1002300091460F4680460446002614F8015B2DB116
:1002400000F05EF80068405DC007F6D12B2D02D0AB
:100250002D2D18D0641E4A463946204600F054F829
:1002600027B13968A14201D1C7F8008071054FF06C
:1002700002040BD54042002803DD02F027FE046093
:10028000A007BDE8F08746F48066E4E70028F8DAC6
:1002900002F01CFE04606FF00040F2E72DE9F05F11
:1002A0000546002092469B468846064681464024E5
:1002B0001BE02846414647462246FFF787FF534644
:1002C0005A46C01A914110D311461846224600F0F2
:1002D0007DF82D1A67EB01084F46224601200021C8
:1002E00000F074F817EB00094E41201EA4F1010440
:1002F000DFDC484631462A464346BDE8F09F000011
:1003000000487047F03700082DE9F05F824600781A
:10031000002715468B460AF10104B946302801D062
:100320009DB113E014F8010B0127782803D0582859
:1003300001D045B10AE00DB1102D07D100271025DD
:1003400014F8010B02E0082500E00A250026B0465B
:100350000EE005FB080005FB06F1012701EB104646
:100360001FFA80F8B6F5803F00D3B94614F8010BA8
:10037000294600F03AF80028EBDABBF1000F05D06F
:100380000FB1641E00E05446CBF80040B9F1000FF5
:1003900006D002F09BFD02210160C81EBDE8F09F5F
:1003A00048EA0640FAE70000064C074D06E0E06820
:1003B00040F0010394E8070098471034AC42F6D3AC
:1003C000FFF7ECFE1C3A00083C3A0008202A04DB48
:1003D000203A00FA02F1002070479140C2F1200358
:1003E00020FA03F31943904070473A2800D230387E
:1003F00020F02002412A01D3A2F13700884201D324
:100400004FF0FF307047FEE730B5002307E001EB07
:100410008304056824684FEA34442C605B1CB3EB0A
:10042000520FF4D3D20703D0026831F823101180A1
:100430000068006830BD70B500230AE001EB83045A
:100440002568E4782DBA25F0FF052543046825606A
:100450005B1CB3EB920FF1D394071BD002F00304A3
:10046000012C03D1066811F823503570022C05D1F8
:1004700001EB83040568248864BA2C80D243920778
:1004800008D101EB830103680A8852BA1A80026816
:10049000897811700068006870BD704770B5264C8F
:1004A0004FF48071204600F027FA06464FF400759D
:1004B0002946204600F020FA204C217969B394F9AE
:1004C00006104FF000034A1C03D036B1E27932B176
:1004D00008E016B1A071E37104E0FF2101E081F0B2
:1004E0000101A17194F90620511C1FD082421BD139
:1004F000E3719AB1124E0122217A304600F001FADE
:10050000207A0022C04381B2304600F0FAF9627AC4
:1005100080214FF0904000F0F4F907E007490931DD
:10052000481E03F0CDF801E00120E0712846BDE847
:10053000704000F0FFB800000008004800000020F4
:100540000004004830B51F23012505FA03F40C42CE
:1005500001D15B1EF9D27AB1082A09D0102A04D041
:10056000182A09D1072B05D206E0082B02D203E096
:10057000102B01D3012030BD0368596100688168E8
:1005800021F0180111438160002030BD70B5044690
:100590000020257F0346012D0BD00125257702265B
:1005A0006677266A012E10D0022E12D0032E14D1A7
:1005B00006E0022070BD266851F820303360401CF0
:1005C0009042F8D32068036807E02046FFF733FF26
:1005D00002E02046FFF718FF0346657700202077EA
:1005E000184670BD2DE9F04104460020257F0346E2
:1005F000012D10D001252577022666772668B76879
:1006000047F00107B760266A012E11D0022E13D0E1
:10061000032E15D107E00220BDE8F081266851F8CD
:1006200020303360401C9042F8D32068036807E014
:100630002046FFF700FF02E02046FFF7E5FE0346F5
:100640006577002020771846E6E7000010B5040023
:1006500010D0607F20B900202077204600F030F8CD
:1006600002206077207938B1D4E902122046FFF7E2
:1006700069FF48B1012010BD216810484861206819
:10068000816821F0180181606079A0B1206921683A
:10069000086120688168626921F06001114381600E
:1006A00020688168A26921F08001114381600120E6
:1006B0006077002010BD4FF0FF30E8E7B71DC104A0
:1006C00008B500680649884208D10648416941F0EA
:1006D00040014161406900F04000009008BD000009
:1006E000003002400010024010B590F821100024A4
:1006F000022903D004218163012418E001680A68FB
:1007000022F00E020A6001680A6822F001020A6003
:1007100090F84020012303FA02F1C26B516080F887
:100720002130002180F82010416B01B1884720461C
:1007300010BD7047044910B50A68024202D0086033
:10074000FFF7F7FF10BD0000140401402DE9F84F3A
:10075000DFF88091002209F1040A0AF1040B4FF03E
:100760000F080BF1040EADE001269640334070D027
:100770004C68022C01D0122C11D1D40800EB840754
:100780003D6A5407E40E08FA04FC25EA0C05D1F88A
:1007900010C00CFA04FC4CEA050CC7F820C007682E
:1007A0005400032591F804C0A5400CF0030CAF439E
:1007B0000CFA04FC4CEA070CC0F800C04F68012F8B
:1007C00005D0022F03D0112F01D0122F11D187682D
:1007D000D1F80CC0AF430CFA04FC4CEA070CC0F88B
:1007E00008C04768B7430E79C6F3001696403E43EB
:1007F0004660C668AE438D68A5403543C5604C6809
:10080000E4005ED5344CA56945F00105A561A469F5
:1008100022F0030504F001040094304C2E19B7684F
:100820009407250F08FA05F4A743B0F1904F04D0C0
:100830002B4CA04203D101241CE000241AE0294CD7
:10084000A04201D1022415E0274CA04202D103248A
:1008500010E036E0254CA04201D104240AE0244CEB
:10086000A04201D1052405E0224CA04201D106247A
:1008700000E00724AC403C43B460D9F800404D464A
:100880004E689C43F60300D51C432C60DAF8004008
:1008900055464E689C43B60300D51C432C60DBF8DC
:1008A00000405D464E689C43F60200D51C432C6018
:1008B000DEF8004075464E689C43B60200D51C43E6
:1008C0002C60521C0B6833FA02F47FF44DAFBDE884
:1008D000F88F0000000401400010024000000140B9
:1008E0000004004800080048000C004800100048C0
:1008F00000140048001800480069084000D001209A
:1009000070470AB181617047816270470148006891
:10091000704700009C00002002480168491C0160EB
:10092000704700009C000020074810B5016841F0A6
:1009300010010160032000F089F8002000F006F8A3
:1009400000F018F8002010BD0020024010B5044649
:1009500007484FF47A710068B0FBF1F000F0D6FD63
:1009600000222146501E00F051F8002010BD00006A
:10097000A00000201E4808B5816941F00101816195
:10098000816901F001010091C16941F08051C161AB
:10099000C06900F080500090032000F057F800225A
:1009A00011466FF00B0000F031F8002211466FF095
:1009B0000A0000F02BF8002211466FF0090000F049
:1009C00025F800221146501F00F020F800221146A1
:1009D000101F00F01BF800221146901E00F016F8C0
:1009E0000022BDE808401146501E00F00FB800007C
:1009F0000010024000F01F020121914040098000D8
:100A000000F1E020C0F8001170470000F0B40E4B78
:100A10001B68C3F30223C3F10704042C00D9042488
:100A20001D1D072D01D2002300E0DB1E012606FA62
:100A300004F56D1E0D409D409E40761E164045EA11
:100A40000601F0BC01F056BD0CED00E0064A00F0D6
:100A5000070110684FF6FF03184040EA01200349E0
:100A600008431060704700000CED00E00000FA053C
:100A70002DE9F84F044600689F4DC0037ED5E86914
:100A80000026C00008D4E86940F08050E861E869B9
:100A9000012600F08050009098480168C90511D4E3
:100AA0000168804641F480710160FFF72FFF07461F
:100AB00004E0FFF72BFFC01B642835D8D8F80000EE
:100AC000C005F6D5286A10F4407052D0A18801F410
:100AD000407181424DD0286A4FF4803797FAA7F1D0
:100AE000B1FA81F18B0086494FF001080B4420F4E4
:100AF0004070C3F8008497FAA7F3B3FA83F301EBCD
:100B000083010022C1F800242862C00731D0FFF71A
:100B1000FDFE074641F2883A4FF0020907E0FFF771
:100B2000F5FEC11B514502D90320BDE8F88F99FAA3
:100B3000A9F0B0FA80F040F040004946B8EB501FF1
:100B400001D128680BE091FAA1F0B0FA80F040F0F2
:100B50004000B1EB501F01D1286A00E0686A99FAA1
:100B6000A9F1B1FA81F101F01F0108FA01F2104276
:100B7000D5D0286A616820F4407000E006E00843A0
:100B800028621EB1E86920F08050E8612078C00733
:100B900005D0286BA16820F0030008432863207863
:100BA000800705D5286BE16820F4403008432863AE
:100BB0002078400705D5286B216920F440200843A0
:100BC00028632078800605D5286BE16920F01000A5
:100BD000084328632068800305D56868616D20F4A8
:100BE0008000084368602078400605D5286B216A9C
:100BF00020F02000084328632068400305D5286BB7
:100C0000616A20F04000084328632078000705D57A
:100C1000286B616920F44010084328632078C006DF
:100C200005D5286BA16920F440000843286320887B
:100C3000800505D56868216B20F4000008436860D2
:100C40002078000605D5E86AA16A20F4F870084308
:100C5000E8622088C00505D5E86AE16A20F478508A
:100C60000843E8622088C00405D5286B616B20F436
:100C70008070084328632088800405D5286B216C88
:100C800020F40070084328632068C00205D5286B53
:100C9000A16B20F08070084328632068800205D58E
:100CA000286BE16B20F00070084328632068400245
:100CB00005D5286B616C20F48060084328632068A8
:100CC000000205D5286BA16C20F40060084328635E
:100CD0002068C00105D5286BE16C20F40050084362
:100CE00028632068800105D5286B216D20F4004021
:100CF00008432863002018E70010024000700040FD
:100D0000000042422DE9F047DFF8688104460E46B4
:100D1000D8F8000000F00700B0420CD2D8F800105C
:100D200021F007013143C8F80010D8F8000000F0A6
:100D30000700B04273D120784F4F800705D57868FF
:100D4000A16820F0F000084378602078C00755D0F3
:100D50006068012201280CD0022828D0022393FACF
:100D6000A3F1B1FA81F141F02001490904D03968B9
:100D700003E04FF40033F2E7796A93FAA3F3B3FA8E
:100D800083F303F01F039A40114248D0796821F0A1
:100D9000030101437960FFF7B9FD0546606841F240
:100DA000883101280CD00228894615D022E04FF066
:100DB0000073D4E7FFF7AAFD411B494501D916E0AE
:100DC00089467868C0F381000128F3D116E0FFF767
:100DD0009DFD411B49450AD87868C0F3810002286F
:100DE000F5D10BE0FFF792FD411B494502D90320E5
:100DF000BDE8F087786810F00C0FF3D1D8F8001038
:100E0000404601F00701B1420BD9016821F007010A
:100E100031430160006800F00700B04201D00120BA
:100E2000E6E72078400705D57868E16820F4E060BF
:100E3000084378602078000706D57868216920F497
:100E4000605040EAC100786000F052F87968F02202
:100E500092FAA2F201F0F001B2FA82F2D140074A0E
:100E6000515CC840064908600020FFF76FFD002074
:100E7000BEE7000000200240001002405437000886
:100E8000A00000200148006870470000A00000207A
:100E900008480949006849684FF4E06292FAA2F2F2
:100EA00001F4E061B2FA82F2D140044A515CC840D8
:100EB00070470000A00000200010024064370008C6
:100EC00008480949006849684FF4605292FAA2F252
:100ED00001F46051B2FA82F2D140044A515CC84038
:100EE00070470000A0000020001002406437000896
:100EF000124B10B55968124801F00C02042A1CD09C
:100F0000082A1AD14FF4701494FAA4F401F4701260
:100F1000B4FA84F4E2400B4CDB6AA25C0F2494FA2E
:100F2000A4F403F00F03B4FA84F4E340054CC903BE
:100F30001034E35CB0FBF3F0504310BD00100240EE
:100F400000127A00343700082DE9F84F0446007883
:100F5000F74EC0074FF0010538D070684FF40038E5
:100F6000C0F38100012819D07068C0F38100022805
:100F700004D17068C0F3C13002280FD06068B0F5AA
:100F8000803F24D010B1B0F5A02F2AD0306820F4D3
:100F900080303060306820F480201BE098FAA8F0A0
:100FA000B0FA80F040F02000400901D0306800E045
:100FB000706A98FAA8F1B1FA81F101F01F0105FAFF
:100FC00001F108424BD06068002877D047E03068D4
:100FD00040F480303060606818B3FFF797FC074634
:100FE00009E0306840F480203060F0E7FFF78EFCC5
:100FF000C01B64287DD898FAA8F0B0FA80F040F0C1
:101000002000400901D0306800E0706A98FAA8F129
:10101000B1FA81F101F01F0105FA01F10842E5D0B2
:101020001DE0FFF773FC074604E0FFF76FFCC01BF1
:101030006428DFD898FAA8F0B0FA80F040F02000D9
:10104000400901D0306800E0706A98FAA8F1B1FA5E
:1010500081F101F01F0105FA01F10842E5D1207884
:10106000DFF8D08280074FF0000B4FF002073FD52A
:1010700070684FF0F80A10F00C0F15D07068C0F3CC
:101080008100022804D17068C0F3C13001280BD060
:10109000E06878B395FAA5F0B0FA80F048F82050EF
:1010A000FFF734FC81462CE097FAA7F0B0FA80F005
:1010B00040F02000400902D0306801E089E0706A09
:1010C00097FAA7F1B1FA81F101F01F0105FA01F1D8
:1010D000084202D0E06801287BD130689AFAAAF26F
:1010E0002169B2FA82F220F0F800914008433060A2
:1010F0004DE053E126E0FFF709FCA0EB09000228D0
:1011000097D897FAA7F0B0FA80F040F02000400995
:1011100001D0306800E0706A97FAA7F1B1FA81F166
:1011200001F01F0105FA01F10842E4D030689AFA93
:10113000AAF220F0F8012069B2FA82F2904001434D
:10114000316024E095FAA5F1B1FA81F148F821B0B7
:10115000FFF7DCFB814605E0FFF7D8FBA0EB0900B9
:101160000228CDD897FAA7F0B0FA80F040F020001E
:10117000400901D0306800E0706A97FAA7F1B1FA2F
:1011800081F101F01F0105FA01F10842E4D1207854
:1011900000076AD56069A0B395FAA5F0B0FA80F0AF
:1011A00008EB8000C0F88054FFF7B0FB814605E0F3
:1011B000FFF7ACFBA0EB09000228A1D897FAA7F033
:1011C000B0FA80F040F06000B5EB501F02D13068FB
:1011D0000CE06CE197FAA7F0B0FA80F040F0600004
:1011E000B7EB501F01D1306A00E0706A97FAA7F19F
:1011F000B1FA81F101F01F0105FA01F21042D7D0D6
:1012000033E0FFE795FAA5F1B1FA81F108EB81012E
:10121000C1F880B4FFF77AFB814605E0FFF776FB63
:10122000A0EB090002289CD897FAA7F0B0FA80F04A
:1012300040F06000B5EB501F01D130680BE097FA29
:10124000A7F0B0FA80F040F06000B7EB501F01D17A
:10125000306A00E0706A97FAA7F1B1FA81F101F003
:101260001F0105FA01F21042D8D12078400772D54B
:10127000F0694FF0000AC00009D4F06940F08050D6
:10128000F061F0694FF0010A00F0805000902A48A8
:101290000168C90511D4016841F480710160FFF74C
:1012A00035FB814605E0FFF731FBA0EB0900642820
:1012B00074D821480068C005F5D5A06801280AD077
:1012C00008B1052811D0306A20F001003062306A80
:1012D00020F0040002E0306A40F001003062A068B3
:1012E00060B3FFF713FB81460CE0306A40F0040066
:1012F0003062F0E7FFF70AFBA0EB090141F288300A
:1013000081424BD897FAA7F0B0FA80F040F0400045
:10131000B5EB501F01D1306812E097FAA7F0B0FA90
:1013200080F040F04000B7EB501F08D1306A07E072
:101330000010024000004242007000400CE0706A61
:1013400097FAA7F1B1FA81F101F01F0105FA01F254
:101350001042CFD02EE034E0FFF7D8FA814607E004
:10136000FFF7D4FAA0EB090141F28830814215D889
:1013700097FAA7F0B0FA80F040F04000B5EB501FAC
:1013800001D130680CE097FAA7F0B0FA80F040F095
:101390004000B7EB501F02D1306A01E08DE0706A67
:1013A00097FAA7F1B1FA81F101F01F0105FA01F2F4
:1013B0001042D5D1BAF1000F03D0F06920F080506F
:1013C000F061A06998B37168C1F3810102296ED000
:1013D00002284FF0807158460BD091FAA1F1B1FA72
:1013E00081F148F82100FFF791FA04464FF00077A9
:1013F00066E0894691FAA1F1B1FA81F1C24648F856
:101400002100FFF783FAA84607464FF0007504E075
:10141000FFF77CFAC01B02284FD895FAA5F0B0FA66
:1014200080F040F02000400902D0306801E05CE02C
:10143000706A95FAA5F1B1FA81F101F01F0208FA7C
:1014400002F10842E4D1F06A616A20F00F0008431B
:10145000F062D4E907100843716821F4761108435B
:10146000706099FAA9F0B0FA80F047464AF82080F7
:10147000FFF74CFA044604E0FFF748FA001B022885
:101480001BD895FAA5F0B0FA80F040F02000400992
:1014900001D0306800E0706A95FAA5F1B1FA81F1E7
:1014A00001F01F0107FA01F10842E5D01DE01EE03E
:1014B000FFF72CFA001B022802D90320BDE8F88FA1
:1014C00097FAA7F0B0FA80F040F02000400901D070
:1014D000306800E0706A97FAA7F1B1FA81F101F083
:1014E0001F0105FA01F10842E2D10020E6E70120E0
:1014F000E4E74FF0E0210428086903D020F004005D
:101500000861704740F00400FAE7704710B5401ECC
:10151000B0F1807F01D3012010BD4FF0E024606165
:101520000F21601700F0E6FF0020A0610720206176
:10153000002010BD10B5FFF7E8FF10BD70477047E1
:1015400030B590F83C20012A22D0012280F83C20BE
:101550000268536894680F4DAA4205D00E4DAA4206
:1015600002D00E4DAA4203D123F470054B682B43E1
:1015700023F070050B6889682B4324F08004214315
:10158000536002689160002180F83C10084630BD2D
:10159000022030BD002C01400034014000500140C9
:1015A00010B5040003D094F83D0010B107E001200D
:1015B00010BD002084F83C00204600F00DF8022009
:1015C00084F83D00211D206801F006F9012084F80F
:1015D0003D00002010BD000008B500681449B0F1BE
:1015E000804F14D0134A904220D1C86940F00200C5
:1015F000C861C869002200F00200009011461D2059
:10160000FFF704FA1D20BDE80840FFF7F3B9C869E9
:1016100040F00100C861C869002200F0010000909C
:1016200011461C20FFF7F2F91C20ECE708BD000072
:1016300000100240000400400168CA6842F0010244
:10164000CA600068016841F0010101600020704734
:101650000168CA6822F00102CA600068016A41F2AA
:101660001112114207D1016A9210114203D101688F
:1016700021F00101016000207047000070B50446B0
:1016800090F83C00012817D0012584F83C50022036
:1016900084F83D0020688268354E324022F47F4253
:1016A00082600868502838D00DDC20285AD005DC2C
:1016B00090B3102842D152E0022070BD302854D09F
:1016C00040283BD140E060282FD070280CD0B0F5E6
:1016D000805F03D0B0F5005F30D112E020688168F0
:1016E000234A703211400AE0CB68D1E90121206819
:1016F00001F0D4F820688168314041F077018160C1
:101700001CE0CB68D1E90121206801F0C7F820680E
:10171000816841F48041F2E71EE0CA6849682068A8
:1017200001F0CEF85021206806E0CA6849682068B8
:1017300001F0D7F86021206801F0BAF884F83D5034
:10174000002084F83C0070BDCA684968206801F038
:10175000B7F840212068EFE700212068ECE710216E
:101760002068E9E720212068E6E730212068E3E7E8
:1017700088FFFEFF704770B50446006801694FF0AE
:101780000005C943890715D4C168C943890711D425
:10179000E91E0161012020772068806980072046CA
:1017A00002D0FFF7E7FF04E000F098F8204600F0D1
:1017B00096F8257720680169C943490717D4C1689D
:1017C000C943490713D46FF0040101610220207757
:1017D0002068806910F4407F204602D0FFF7CAFFDE
:1017E00004E000F07BF8204600F079F825772068C7
:1017F0000169C943090716D4C168C943090712D44E
:101800006FF008010161042020772068C06980071B
:10181000204602D0FFF7AEFF04E000F05FF820465C
:1018200000F05DF8257720680169C943C90617D41F
:10183000C168C943C90613D46FF0100101610820C3
:1018400020772068C06910F4407F204602D0FFF75F
:1018500091FF04E000F042F8204600F040F82577C0
:1018600020680169C943C90708D1C168C943C907CC
:1018700004D1891E0161204600F032F82068016918
:10188000C943090609D4C168C943090605D46FF0E4
:10189000800101612046FFF751FE20680169C943BC
:1018A000490609D4C168C943490605D46FF040010F
:1018B0000161204600F015F820680169C9438906D6
:1018C0000BD4C168C943890607D46FF020010161B8
:1018D0002046BDE87040FFF732BE70BD70477047CC
:1018E000704770477047704770B502680446D0690A
:1018F000116810F00F0508D1830606D58B0604D5B4
:101900002046BDE8704001F0B5B89368002D66D060
:1019100003F0010501F490762E4360D0C60707D08E
:10192000CE0505D501261662E26E42F00102E2669E
:10193000820708D5DA0706D0266802223262E26EF4
:1019400042F00402E266420708D5DA0706D02368AF
:1019500004221A62E26E42F00202E26602070AD52F
:1019600001F020022A4306D0236808221A62E26EA0
:1019700042F00802E266E26E002A29D0800604D511
:10198000880602D5204601F075F8E06E000703D402
:101990002068806840061CD5204601F050F8206879
:1019A0008168490611D5816821F040018160606E2F
:1019B00058B11C494163606EFEF796FE002807D0BF
:1019C000606E416BBDE8704008472046FFF78BFF13
:1019D00070BD2046FFF787FF0020E06670BDC5029E
:1019E0000ED55B020CD54FF480101062202084F8D5
:1019F000690084F86A002046BDE87040FFF772BFB6
:101A0000020606D50A0604D52046BDE8704001F05E
:101A100057B94006E2D54806E0D52046BDE87040FB
:101A200001F01BB82B2A000810B5040003D094F86D
:101A3000690010B107E0012010BD002084F86800A3
:101A4000204600F027F8242084F869002068016807
:101A500021F001010160204601F048F80128EBD097
:101A6000606A10B1204600F04EFF2068416821F402
:101A7000904141602068816821F02A0181602068DE
:101A8000016841F0010101602046BDE8104000F00E
:101A90009EBF000000B500680E4987B0884217D18C
:101AA0000D48C16941F40031C161C069694600F463
:101AB000003005900C200090022001900020029040
:101AC00003200390072004904FF09040FEF73EFE65
:101AD00007B000BD004400400010024090F86A309A
:101AE000202B3FD1B9B1B2B190F86830012B39D079
:101AF000012380F868304165A0F85820A0F85A20EA
:101B00008168FF22B1F5805F07D07F2351B1B1F129
:101B1000805F0CD010E001207047016921B940F2CC
:101B2000FF1107E00169D1B9A0F85C2004E0016968
:101B3000A9B13F21A0F85C100021C166222280F8E3
:101B40006A2080F8681001688A6842F001028A60A1
:101B50000068016841F49071016000207047A0F8AE
:101B60005C30E9E70220704770472DE9F8430446EE
:101B700090F869001E4617460D4620284DD1CDB17C
:101B8000C7B194F86800012847D0012084F86800A4
:101B90004FF00008C4F86C80212084F869005034AC
:101BA000FEF7B4FE24F8027B814624F852794FF404
:101BB000805718E00120BDE8F883B4F85200401EB9
:101BC000A4F852004B46002280212046009601F0E6
:101BD000A8F8A0B9A068B84201D1206988B115F869
:101BE000010B21680885B4F852000028E5D14B4666
:101BF000002240212046009601F093F830B10320E6
:101C0000D9E735F8020BC0F30800EAE7202084F892
:101C1000690084F868800020CDE70220CBE7704798
:101C2000FEE7000070B52D4DE86A002853D02C4C1B
:101C3000207C617C01EB0020E8602AA001F036F9ED
:101C4000207E00260B2847D00C283CD00D2838D009
:101C50000E283BD129A001F029F9AE66A86E215CBF
:101C60002CA001F023F9A86E401CA8660628F5DB1D
:101C700029A001F01BF9AE66A86E2044817925A049
:101C800001F014F9A86E401CA8660628F4DB27A012
:101C900001F00CF9286B28B10220E866E868801C86
:101CA000E86000E0EE66E86E06E0E168095C21A00D
:101CB00001F0FCF8A86E401CA866E9688842F4D3DD
:101CC00004E01DA000E022A001F0F0F8E06801F0BF
:101CD0007BFBAE66EE6270BD22A0F5E71C00002023
:101CE000CC0100200D0A4E6577206672616D65207B
:101CF00069732072656164793A0000000D0A4465D9
:101D00007374696E6174696F6E2041646472657387
:101D1000733A0000257800000D0A536F75726365F1
:101D200020416464726573733A0000000D0A4461D7
:101D300074613A00256300000D0A4672616D6520EA
:101D400073697A652069732077726F6E670000008F
:101D50000D0A4461746120636F72727570746564FA
:101D6000000000000D0A7061796C6F61645F736937
:101D70007A6520697320746F6F20626967000000C4
:101D80002DE9F0412E4886B0416941F400314161AE
:101D9000416901F400310591416941F480214161BB
:101DA000416901F480210591416941F400214161BB
:101DB00040694FF0904700F40020059000228021F8
:101DC0003846FEF79EFDDFF87C800022FF2140466A
:101DD000FEF797FD80200126CDE9000602240325A9
:101DE00069463846CDE90245FEF7B0FCFF20CDE953
:101DF000000669464046CDE90245FEF7A7FC4FF4D0
:101E00007F400025CDE90005694602944046FEF773
:101E10009DFC4FF4E070CDE900050B4D694602943E
:101E20002846FEF793FC09482102CDE900100294F0
:101E300069462846FEF78AFC06B0BDE8F08100003E
:101E40000010024000040048000800480000311063
:101E500010B5134888B04FF08041016040F2E7317F
:101E60000024C0E901140F49C0E903148461FFF79D
:101E700097FB00B1FEE74FF48050039003A9084898
:101E8000FFF7FCFB00B1FEE70094694604480294AA
:101E9000FFF756FB002800D0FEE708B010BD000099
:101EA000DC000020BFCF6A0010B5144888B012498A
:101EB000016040F295310024C0E9011440F2E7319D
:101EC000C0E903148461FFF76BFB00B1FEE74FF438
:101ED0008050039003A90948FFF7D0FB00B1FEE74B
:101EE0000094694605480294FFF72AFB002800D0B9
:101EF000FEE708B010BD0000000400401C010020F7
:101F00000C4810B50A4901604FF416514160002198
:101F100081600C22C160C0E904128161C16101626B
:101F20004162FFF781FD002800D0FEE710BD0000F0
:101F3000004400405C0100202DE9F05F01F096FABA
:101F40009A4D002401270028974E286D11D00128B2
:101F500001D12C656C66686D18B140F2F25188426F
:101F600005DA01F059FA696D7054491C69652F65ED
:101F700004E0012802D1686E401C68668C49686ED6
:101F800088427DD12C65A04620466C66864C0E2189
:101F90001C3C2176A4F58A714FF0080B4871B146BC
:101FA00058460836C5F85CB00BE0082831D009EB7C
:101FB000000101227F48FEF7E9FAA872E86D401C93
:101FC000E865696D091F8842EFDB686D4E4648443D
:101FD00010F8041D427801EB02218278C07801EBF1
:101FE000024100EB800202EBC00001EB4000C0B2F6
:101FF000E872A97A884225D0307E08280FD099F857
:10200000190088280BD0EF6284F8128084F81380BE
:1020100006E0314601226748FEF7E4FACDE7EF61BA
:102020000C202076AF6585F80B8085F80A80C5F80E
:102030000C80C5F85480C5F85C80C5F86080C5F890
:10204000148092E0584640F2DC594FF00B0AC5F874
:1020500060B086E0A0F10801062903D22218315CA5
:1020600002F8081CA0F10E01062903D22218315CE7
:1020700002F8081CA0F11801012952D8327E00E0B4
:1020800083E0082A24D0717E882921D0434684F831
:10209000128084F81380182802D0192804D040E058
:1020A00041481C38017459E03F481C38427402EB27
:1020B0000120E860484530D984F818A0EF61AF6589
:1020C000EB72AB72EB606B65EB652B666B6124E0CA
:1020D000182802D0192803D023E08820A0743DE0FE
:1020E00084F813B0717F307F042202EB0121084491
:1020F000E860484511D984F818A0EF61AF6585F80C
:102100000B8085F80A80C5F80C80C5F85480C5F8A6
:102110005C80C5F86080C5F81480E86801F04CFA6E
:10212000E060286E1A2819DBE9681A31884215D256
:10213000317E082906D0717E882903D0315C1A3897
:10214000E2680AE01A28F9D01B28F7D01C281ED014
:102150001D2822D0315CE2681C381154286E401CC6
:102160002866696D8842FFF675AFEF61AF6585F847
:102170000B8085F80A80C5F80C80C5F85480C5F836
:102180005C80C5F86080C5F81480BDE8F09F064803
:1021900005491C39407F0874E0E7034802491C39AF
:1021A000007F4874DAE70000E80100201C000020EE
:1021B000A0860100B80000202DE9F041C94F00249D
:1021C000B86A00287ED0386F3D46C17C827C01EB26
:1021D0000221396339690029F4D0AC62017C407C6A
:1021E00001EB0020A864A97811B10220A86401E0E5
:1021F0002A2801DC482000E01E3001F0DDF9AA2386
:10220000EC64AB220146286401E0072802D0E86CA8
:102210000B5400E0CA71E86C401CE8640828F4DB49
:102220000820E86405E0082803D0A97891B1696F17
:1022300011E0A87828B1686F0078296C0872296FBE
:1022400003E0296F08782A6C10720122A648FEF775
:10225000C9F90DE0296F014411F8081C2A6C1154CA
:10226000296F01220144A0480839FEF78FF9287030
:10227000E86C401CE8640E28D5DB0E20E864A878E2
:1022800060B1696FE86C014411F8081C2A6C1154A4
:10229000696F012201449448083909E09149E86CCA
:1022A000783101442B6C11F80E2D1A5401228E48FE
:1022B000FEF76CF92870E86C401CE8641428DEDB3B
:1022C000142000E0E8E0E864E96C286C0122445442
:1022D00001448548FEF75AF92870E86C401CE86410
:1022E0001828F1DB18204FF00108E864286B58B17A
:1022F000A8780028E86C16D0696F182816D011F855
:10230000130F2A6C107615E0C5F82480296FE86C4D
:10231000014411F8081C2A6C1154296F0122014450
:102320007148083908E0296F1828E8D011F8120F11
:102330002A6C507601226C48FEF728F92870E86C68
:10234000401CE8641A28D1DB1A201D26E86460E0EE
:102350002A6B62B11A280FD0A97889B3696FCA684D
:10236000A0F11E01525C2B6C1A54686F47E0296F74
:10237000CA68A0F11A013EE0091DA964296CA87879
:102380000122887657495848891CFEF7FFF82870C3
:10239000296C68780122C87652495348491CFEF7D7
:1023A000F5F82870A87860B1696F11F8100F2A6CE1
:1023B000107701224C48FEF7E9F82870696F0BE0AE
:1023C00015E0296F11F8100F2A6C1077012246488A
:1023D000FEF7DCF82870296F11F8110F2A6C50777E
:1023E00001224148FEF7D2F82870EE640EE0296F12
:1023F000CA68A0F11E01525C2B6C1A54286F01228E
:10240000C06801443848FEF7C1F82870E86C401CE9
:10241000E864A96C01F11A02904299DB3348017E0D
:10242000082913D0407E882810D0A86C1A3009E003
:10243000296C01220C5401442B48FEF7A7F82870A0
:10244000E86C401CE8644428F2DB0FE0A86C1A300A
:1024500009E0296C01220C5401442348FEF796F848
:102460002870E86C401CE8644428F2DBA86C2A2839
:1024700003DA4420E864482003E000F11A011E302A
:10248000E964A863E96C286C2A78425408444470D3
:102490008470C470C5F8448000F0DEFF002813D0BB
:1024A000786C002810D0386B18B10F482430FFF733
:1024B000C3F8D7E90E10884208DA396C085C01F0DD
:1024C0002DF9F86B401CF863BDE8F0813C61BC64F9
:1024D000FC63FC647C64BDE8F04103486430FFF7B2
:1024E000ABB800001C000020B8000020E80100206C
:1024F000FEE770470907090E002806DA00F00F0012
:1025000000F1E02080F8141D704700F1E02080F811
:1025100000147047704770B50D460446FDF766FE1F
:10252000291B491C90FBF1F201FB120020440128F9
:1025300001D0012070BD002070BD70472DE9F04131
:102540004C4D88260127686B4FF00808002418B30B
:1025500000F076FF00281DD04748FFF779F86C633C
:1025600000F062FF2867A86958B144A000F09EFC03
:10257000286F867480F813806878C0F10100687055
:1025800042E041A000F092FC286F8474C474AF62F2
:10259000AC706F62BDE8F081E86958B33648F0303E
:1025A000C17C082902D1817C882902D0EF62EC61CC
:1025B000F0E7C068007838B12F486F62FFF748F83D
:1025C00034A000F073FCF2E7AF70AF62EF62696FA6
:1025D0000C744C748E7481F81380264A0020783273
:1025E0002B6F1B5C0E18B371135C0B54401C062838
:1025F000F6DBDCE71F48296A406A41B10028C9D1EF
:102600001D48FFF725F82C62AC70AF62C2E70028C6
:10261000C0D01948FFF71CF8286F30B1C06800F02F
:10262000D3FE286F00F0D0FE2C6700F009FF0028D1
:10263000B0D000F0F9FE286703210120FFF76BFFFF
:10264000A86168B10DA000F031FC286F867480F895
:1026500013806878C0F101006870AC70AF6207E069
:1026600009A000F023FC286F8474C474AF62AC70BE
:102670006C628FE71C000020DC0000204E65772094
:102680007061636B657400004F6C64207061636BF4
:10269000657400000D0A476F7420746861742041EE
:1026A000434B2062726F0D0A0000000010B5FEF768
:1026B00033F9BDE81040FEF73DBF000030B5A5B0CE
:1026C00001201990102002251A90C002CDE91C505B
:1026D0004FF4E0100024CDE91E04169516A8FEF76D
:1026E00033FC00B1FEE70F20CDE920054FF48060F8
:1026F000CDE92240022120A82494FEF703FB00B17B
:10270000FEE70E480F94009003940E946846FEF77F
:10271000AFF900B1FEE7FEF7B5FB4FF47A71B0FBFD
:10272000F1F0FEF7F3FE0420FEF7E3FE002211466F
:10273000501EFEF76BF925B030BD000002003000DE
:102740001448016841F4700101601348016841F0C8
:10275000010101604168114A114041600168104A5D
:1027600011400160016821F480210160416821F479
:10277000FE014160C16A21F00F01C162016B094A8B
:1027800011400163002181600249C0038039086063
:102790007047000088ED00E0001002400CC07FF898
:1027A000FFFFF6FECCFC00FF10B50348FEF7E3FF89
:1027B00002490120086010BDDC0000203C00002020
:1027C00010B50348FEF7D7FF02490120086010BD8D
:1027D0001C0100202C0000202DE9F0470268274D45
:1027E000274E284F284B294C4FF0804AA84209D049
:1027F000504507D0B04205D0B84203D0984201D02E
:10280000A04204D122F0700C4A6842EA0C02DFF8C0
:1028100080C0DFF88080DFF88090A8420FD050455C
:102820000DD0B0420BD0B84209D0984207D06045D5
:1028300005D0404503D0484501D0A04203D122F441
:102840004076CA6832434E6922F080023243026009
:102850008A68C2620A688262A84209D0984207D098
:10286000604505D0404503D0484501D0A04201D184
:102870000969016301214161BDE8F087002C014035
:1028800000040040000800400034014000500140B6
:1028900000400140004401400048014010B58468F8
:1028A00042EA032224F47F440A432243826010BD9B
:1028B000826822F070020A4342F00701816070478B
:1028C00010B5046A036A23F001030362836923F0ED
:1028D000F00343EA021324F00A020A43836102620E
:1028E00010BD10B5036A23F0100303628469036A04
:1028F00024F4704444EA023223F0A00343EA0111B5
:102900008261016210BD90F82410C90706D00168E9
:102910004A68836A22F400321A434A6090F824100D
:10292000890706D501684A68C36A22F480321A43CF
:102930004A6090F82410490706D501684A68036B7D
:1029400022F480221A434A6090F82410090706D521
:1029500001684A68436B22F400421A434A6090F8C7
:102960002410C90606D501688A68836B22F4805258
:102970001A438A6090F82410890606D501688A688F
:10298000C36B22F400521A438A6090F8241049065F
:1029900011D501684A68036C22F480121A434A6018
:1029A000016CB1F5801F06D101684A68436C22F4BE
:1029B000C0021A434A6090F82410090606D501683F
:1029C0004A68806C22F4002202434A607047F8B5DE
:1029D00000250446C566FDF799FF07462068006894
:1029E0006FF07E46000708D53B4600224FF40011E9
:1029F0002046009600F095F960B92068006840070D
:102A00000AD53B4600224FF480012046009600F094
:102A100088F908B10320F8BD202084F8690084F803
:102A20006A0084F868500020F8BD10B5406A0021A3
:102A3000A0F85A10A0F85210FEF755FF10BD01681B
:102A40000A6822F490720A6001688A6822F0010222
:102A50008A60202180F86A10704710B501680A6802
:102A600022F040020A60202180F86910FFF7D7F8B1
:102A7000002010BD10B5B0F85C2090F86A300168F5
:102A8000222B05D0886940F008008861022010BD23
:102A9000898C8368B3F5805F01D103696BB1114004
:102AA000426D531C43651170B0F85A10491E090459
:102AB000090CA0F85A1007D015E0436D1140198099
:102AC000416D891C4165EFE701680A6822F4907244
:102AD0000A6001688A6822F001028A60202180F879
:102AE0006A10FFF741F8002010BD00002DE9F04109
:102AF00004461020A3682269E66913436269002135
:102B00003243134322680D461668644F3E401E430D
:102B1000166022685368E66823F4405333435360D9
:102B2000A369226A13432268966826F430661E431E
:102B300096605B4F22685B4B0603BA420CD11B6B5D
:102B400013F0030306D0012B4DD0022B4DD0032BE5
:102B50004CD146E0012049E0534FBA420CD11B6BE7
:102B600013F440333BD0B3423DD0B3F5003F3CD0EB
:102B7000B3F5403F3AD134E04C4FBA420DD11B6B14
:102B800013F440232BD0B3F5802F2CD0B3F5002FB6
:102B90002BD0B3F5402F29D123E0454FBA420DD1B8
:102BA0001B6B13F440131AD0B3F5801F1BD0B3F581
:102BB000001F1AD0B3F5401F18D112E03D4FBA42A2
:102BC00014D11B6B13F4400309D0B3F5800F0AD066
:102BD000B3F5000F09D0B3F5400F07D101E0002095
:102BE00004E0022002E0042000E00820E7694FF43E
:102BF00000439F4226D109281DD2DFE800F00508D6
:102C0000121C151C1C1C1800FEF742F901E0FEF70F
:102C100057F94100606801EB5001B1FBF0F081B25F
:102C20000AE025496068F6E7FEF762F9F1E76068B7
:102C300006EB5001F1E7012521F00F00C1F342013D
:102C400008431CE0092825D2DFE800F005080B2422
:102C5000102424241C00FEF71BF909E0FEF730F9CC
:102C600006E01649606801EB50010EE0FEF740F9FE
:102C70000146606801EB5001B1FBF0F080B22168C1
:102C8000C86008E0606803EB5001B1FBF0F080B26F
:102C9000D06000E001252846BDE8F081F369FFEF30
:102CA000003801400010024000440040004800404D
:102CB000004C0040005000400024F40000127A0054
:102CC00090F86910212901D002207047B0F8521005
:102CD00021B18168B1F5805F0BD00CE001680A6812
:102CE00022F080020A600068016841F04001016042
:102CF0000BE0016959B1C16C4A1CC26402680978D1
:102D0000118530F8521F491E018000207047C16CA8
:102D100002680988C1F308011185C16C891CC1646E
:102D2000EFE72DE9F0411E46174688460446069D0A
:102D30001CE0681C1AD025B1FDF7E8FD801BA842F5
:102D400014D92068016821F4D0710160206881687D
:102D500021F001018160202084F8690084F86A0074
:102D6000002084F868000320BDE8F0812068C16974
:102D700038EA010004D00020B842DAD00020F3E79E
:102D80000120F9E7F8B538480068808C374DC1B2AA
:102D90008DF800102846AA7A00244069012640F2E6
:102DA000DC5722B1012A1FD0022A52D13CE010B1D7
:102DB0000520687153E001211C20FDF729FA6861A4
:102DC00039460120FDF724FA696949B120B1C8608C
:102DD000AE726E71AC813CE0084600F0F5FA6C61B1
:102DE00023A000F05BFC34E0287B204B00F00102C4
:102DF0000E33C007995409D0102200211846FDF760
:102E000015FAAA89696901EB52010870A88906219F
:102E1000401C80B2A881B1EB500F1AD10220A872D9
:102E200068716869048214E0028ABA4202D9AC72FD
:102E300004200DE0C0680D2905D081546869018A1D
:102E4000491C018205E08454AC726869067603204F
:102E500068710A23012269460348FEF786FE02488C
:102E6000FEF742FDF8BD00005C01002000000020DC
:102E70005278206275666665722063616C6C6F6360
:102E8000206661696C2C207761697420666F7220FE
:102E90006F6C6420726571756573747320746F2034
:102EA00066696E6973682100FEE700000FB4054B88
:102EB00010B503A9044A029800F01CF810BC5DF894
:102EC00014FB0000B1330008A80000200048704740
:102ED000B400002002E008C8121F08C1002AFAD17D
:102EE00070477047002001E001C1121F002AFBD18A
:102EF000704700002DE9FF4F8DB00F4605460026B4
:102F000006E025280BD0DDE90F1290476D1C761CDA
:102F100028780028F5D111B03046BDE8F08F0024A4
:102F2000A246A1460122EC4900E0044315F8013F06
:102F3000203B02FA03F00842F7D128782A2810D063
:102F40006FF02F022878A0F13001092914D80AEB7C
:102F50008A0102EB410144F0020400EB010A6D1CFE
:102F6000F0E701CF5FEA000A03D544F40054CAF148
:102F7000000A44F002046D1C28782E2817D115F899
:102F8000010F44F004042A280ED06FF02F02287895
:102F9000A0F1300109290AD809EB890102EB4101AE
:102FA00000EB01096D1CF2E757F8049B6D1C2878B3
:102FB0006C280FD006DC4C2817D068280DD06A2862
:102FC00014D104E0742810D07A280FD10DE044F415
:102FD00000140AE044F4801401E044F440146978D9
:102FE000814202D104F580146D1C6D1C2A786E2A72
:102FF0001FD00CDC632A31D004DC002A8BD0582A85
:1030000011D1A3E0642A68D0692A0CD165E0732A43
:103010002ED004DC6F2A73D0702A04D19BE0752A6D
:103020006FD0782A6ED01046DDE90F129047761CDB
:1030300050E1C4F30250022806D0032809D0042826
:1030400001CF09D0066045E101CFF117C0E9006169
:1030500040E101CF06803DE106703BE117F8040B2B
:103060008DF8000000208DF80100EB46012003E000
:1030700057F804BB4FF0FF3061074FF0000102D456
:103080000DE008F10101884649450FDA8045F8DB7B
:103090001BF808100029F4D108E008F10101884666
:1030A0008142FADB1BF808100029F6D1DDE90F2375
:1030B000AAEB08008146214600F036F9304400EBC7
:1030C000080604E0DDE90F121BF8010B9047B8F188
:1030D0000108F7D221464846F7E00A21C4F302531B
:1030E0004FF0000B0891022B04D001CFC117032B26
:1030F00009D00AE0FF1D27F00707F7E8020108E002
:1031000032E01FE020E000B2C117042B01D140B231
:10311000C117031E71F1000307DA4FF0000CD0EB6A
:103120000C006CEB01012D2302E0230504D52B23B9
:103130008DF82430012303E0E30701D02023F7E7D3
:10314000984658E00A2110E010210EE010204FF0C0
:10315000000B08900CE010214FF0000B44F0040429
:103160004FF00809089103E008214FF0000B089187
:10317000C4F30253022B04D001CF0021032B06D04D
:1031800006E0FF1D27F00707F7E8020103E080B221
:10319000042B00D1C0B24FF0000823072BD5702AB2
:1031A00007D0DDF820C08CF0100C5CEA0B0C05D0C9
:1031B0000EE040238DF82430012308E050EA01039B
:1031C00006D030238DF824308DF825200223984630
:1031D000DDF820C08CF0080C5CEA0B0C0BD150EA37
:1031E000010301D1630706D530238DF824304FF059
:1031F0000108A9F10109582A04D038A20B9208AAA3
:103200000A920BE03AA2F9E75B46089AFDF746F806
:103210000B9B9B5C0A9A521E0A92137050EA0102A1
:10322000F2D10A98ADEB000000F1200B600702D547
:1032300024F4803401E04FF00109D94502DDA9EB07
:103240000B0000E0002000EB0B0141440890AAEBCA
:10325000010AE00306D4DDE90F232146504600F0C1
:1032600063F806444FF0000908E009A911F80900C5
:10327000DDE90F12904709F10109761CC145F4DB25
:10328000E0030CD5DDE90F232146504600F04CF851
:10329000064404E0DDE90F1230209047761C0899BF
:1032A000481E08900029F5DC08E00A980A99007881
:1032B000491C0A91DDE90F129047761CBBF1000111
:1032C000ABF1010BF1DC21465046DDE90F2300F0A4
:1032D00019F806446D1C1BE6092801003031323311
:1032E0003435363738396162636465660000000042
:1032F000303132333435363738394142434445462C
:10330000000000002DE9F041044600251E46174646
:10331000880404D405E039462020B0476D1C641EA3
:10332000F9D52846BDE8F0812DE9F0410446002595
:103330001E469046C80301D5302700E020278804A8
:1033400004D505E041463846B0476D1C641EF9D5EA
:103350002846BDE8F081000070B5124D2868124C77
:103360008021E0704FF09040FDF7C6FA0F4E2071BB
:103370004FF400713046FDF7BFFA6071802130468E
:10338000FDF7BAFAA0714FF480713046FDF7B4FA38
:10339000E07128684021000A20723046FDF7ACFA3F
:1033A000607270BD100400481C0000200008004836
:1033B00013B501231A4669460248FEF7D6FB00986A
:1033C0001CBD00005C01002010B5002821D0114B6D
:1033D0000022001F196803E0814203D80A464968A9
:1033E0000029F9D152B11368841A9C4204D10068B3
:1033F00018441060104602E0506000E0186039B1D7
:1034000002680B1A934203D10B681A4402604968A0
:10341000416010BDAC00002002490022C8788A70CB
:1034200070470000000000200449002248694A61FA
:10343000002801D006224A717047000000000020D9
:103440000448406918B1007E08B10120704700208F
:1034500070470000000000200348007808B10020F9
:10346000704701207047000000000020014880786C
:1034700070470000000000200EB5FDF755FAFFF779
:103480001DF9FEF77DFCFEF73BFD2E482C4901247B
:103490000160002101714171416104628161FDF7A8
:1034A000D5F800B1FEE7FEF7D3FCFEF7FDFC0022E5
:1034B00011461720FDF7AAFA1720FDF79BFA002204
:1034C00011462620FDF7A2FA2620FDF793FA1EA04A
:1034D000FFF7ECFC2C48C178437902798DE80E00A7
:1034E0008378427801782948FFF7E0FC16A0FFF7BF
:1034F000DDFC27A0FFF7DAFC2C4804702C4841695A
:1035000041F040014161406900F0400000901C2002
:1035100000F052F81C49783948670A4801222549C9
:10352000A430FEF7DBFA00F07DF8FFF715FFFFF798
:1035300005F8FEF741FEFEF7FFFCFEF773FBECE734
:1035400000300240B80000202D2D2D2D2D2D2D2DC9
:103550002D2D2D2D2D2D2D2D2D2D2D2D2D2D2D2D9B
:103560002D2D2D2D2D2D2D2D2D2D2D2D2D2D2D2D8B
:103570002D2D2D2D2D2D2D2D2D2D2D2D2D2D2D2D7B
:103580002D2D2D2D0D0A000094000020B4390008C7
:10359000507265737320616E79206B657920746F4A
:1035A0002073746172740D0A000000000400002092
:1035B0000010024018000020F0B50B30154D20F02F
:1035C00007010024144A0FE003688B420BD38B429F
:1035D00005D95E1A43184768C3E9006700E04368ED
:1035E000136002C004E0021D10680028ECD12046E0
:1035F000002802D1286808B10020F0BD064A07481B
:103600001060074A121A22F00702C0E900240120C4
:103610002860D7E7B0000020AC000020E4070020BD
:10362000E0E700203EB5154C0025607907281DD243
:10363000DFE800F01C04061D161F210010480CE0F6
:10364000606943790279C1788DE80E008378427809
:1036500001780C48FFF72AFC0B48FFF727FC04E031
:1036600040F2DC510948FFF721FC65713EBD084876
:10367000F3E70848F1E70848EFE700000000002002
:103680003839000874390008243800086838000800
:10369000F8380008F4370008B838000810B50446B8
:1036A00001E0FFF785FE14F8010B04490028F8D16A
:1036B000BDE810400A20FFF77BBE0000A8000020F4
:1036C0002DE9F041124F0C46064680213846FDF7A1
:1036D00013F9054640213846FDF70EF90D49012240
:1036E00020B10D480068000AC8708A702378002055
:1036F000012B0AD0002D06D10B78002B03D04B787C
:10370000337022700870BDE8F0812070FBE7000084
:1037100000080048000000201004004804490A780E
:103720000AB10020704748700120087070470000FF
:103730000000002002030405060708090A0B0C0D0F
:103740000E0F10100102030405060708090A0B0CEE
:103750000D0E0F1000000000000000000102030425
:103760000607080900000000010203040040404071
:103770004040404040404141414141404040404044
:1037800040404040404040404040404040050202F0
:1037900002020202020202020202020202202020AF
:1037A000202020202020200202020202020290900B
:1037B0009090909010101010101010101010101009
:1037C000101010101010101002020202020288885D
:1037D0008888888808080808080808080808080869
:1037E0000808080808080808020202024000000051
:1037F0006D3700080D446C6C206275737921207759
:1038000061697420666F7220446C6C20746F207242
:1038100065616420746865207265717565737421D3
:103820000D0A0000456E746572207061796C6F61DD
:103830006420616E64207468656E207072657373B5
:103840002027456E7465722720286D617820736982
:103850007A652069733A2031353030206279746599
:103860007321290D0A0000000D0A4572726F722142
:10387000207061636B6574206F766572666C6F771C
:1038800021202D206D61782073697A65206973206D
:1038900025642062797465732028707265737320C3
:1038A000616E79206B657920746F20726573746125
:1038B0007274290D0A0000000D446C6C20676F744F
:1038C0002074686520726571756573742120287095
:1038D0007265737320616E79206B657920746F2037
:1038E0006275696C642061206E6578742072657100
:1038F00075657374290D0A000D0A5265717565733B
:10390000742073656E7420746F20444C4C202877AB
:1039100061697420666F72207472616E736D697371
:1039200073696F6E20746F20636F6D706C65746562
:10393000292E0D0A00000000456E74657220646532
:103940007374696E6174696F6E204D4143206164C8
:1039500064726573732028464F524D4154203D20B8
:10396000585858585858585858585858293A0D0ABD
:10397000000000000D0A44657374696E6174696F1C
:103980006E204D41432061646472657373206973D6
:103990003A20253032583A253032583A25303258BC
:1039A0003A253032583A253032583A253032580DBF
:1039B0000A000000444C4C206973204F6E212044C3
:1039C0004C4C2077696C6C207072696E7420527850
:1039D000206461746120616E642054782064617495
:1039E00061200D0A284D79204D41432061646472A5
:1039F0006573732069733A20253032583A25303286
:103A0000583A253032583A253032583A2530325813
:103A10003A25303258290D0A000000003C3A0008CF
:103A200000000020B8000000D42E0008F43A00087E
:103A3000B800002028FB0000E42E00080000000071
:103A40000000FF0000000000000000000000000077
:103A50000000000000000000000000000000000066
:103A60000000000000000000010000000000000055
:103A70000000000000000000000000000000000046
:103A80000000000000000000000000000100000035
:103A90000000000000000000000000000000000026
:103AA0000000000000000000000000000000000016
:103AB0000100000000000000000000000000000005
:103AC00000000000000000000000000000000000F6
:103AD000CCCCCCCCCCCC00000000000000127A0092
:103AE00000000000000000000000000000000000D6
:043AF00000000000D2
:040000050800019559
:00000001FF
